{
  "address": "0x4A73733B91fdaacc29C408bE7bf954238E7D01cE",
  "abi": [
    {
      "anonymous": false,
      "inputs": [
        {
          "indexed": false,
          "internalType": "uint256",
          "name": "newCounterValue",
          "type": "uint256"
        },
        {
          "indexed": false,
          "internalType": "address",
          "name": "msgSender",
          "type": "address"
        }
      ],
      "name": "IncrementCounter",
      "type": "event"
    },
    {
      "inputs": [],
      "name": "counter",
      "outputs": [
        {
          "internalType": "uint256",
          "name": "",
          "type": "uint256"
        }
      ],
      "stateMutability": "view",
      "type": "function"
    },
    {
      "inputs": [],
      "name": "increment",
      "outputs": [],
      "stateMutability": "nonpayable",
      "type": "function"
    },
    {
      "inputs": [
        {
          "internalType": "address",
          "name": "",
          "type": "address"
        }
      ],
      "name": "incrementsByUser",
      "outputs": [
        {
          "internalType": "uint256",
          "name": "",
          "type": "uint256"
        }
      ],
      "stateMutability": "view",
      "type": "function"
    }
  ],
  "transactionHash": "0x095e15bd908f5ac1d5f4036002d94b873cd8e607a4f9d5d0183bad683b1df23d",
  "args": [],
  "numDeployments": 1,
  "solcInputHash": "83422fea2cc023990ef3464efc6bb3f0",
  "bytecode": "0x608060405234801561001057600080fd5b50610189806100206000396000f3fe608060405234801561001057600080fd5b50600436106100415760003560e01c806361bc221a14610046578063cd77113d14610061578063d09de08a14610081575b600080fd5b61004f60005481565b60405190815260200160405180910390f35b61004f61006f3660046100fc565b60016020526000908152604090205481565b61008961008b565b005b60008054908061009a8361012c565b90915550503360009081526001602052604081208054916100ba8361012c565b9091555050600054604080519182523360208301527fd26752d6efe11773b4a85cdfa0b3fe9efa9707bd50024c7beaed659a141f7858910160405180910390a1565b60006020828403121561010e57600080fd5b81356001600160a01b038116811461012557600080fd5b9392505050565b60006001820161014c57634e487b7160e01b600052601160045260246000fd5b506001019056fea2646970667358221220cc0b4e4d0112dc6337a8932c8a93a286356ea923264b5044de34f5433acabe2064736f6c63430008120033",
  "devdoc": {
    "kind": "dev",
    "methods": {},
    "version": 1
  },
  "userdoc": {
    "kind": "user",
    "methods": {},
    "version": 1
  },
  "storageLayout": {
    "storage": [
      {
        "astId": 27,
        "contract": "contracts/SimpleCounterUser.sol:SimpleCounterUser",
        "label": "counter",
        "offset": 0,
        "slot": "0",
        "type": "t_uint256"
      },
      {
        "astId": 31,
        "contract": "contracts/SimpleCounterUser.sol:SimpleCounterUser",
        "label": "incrementsByUser",
        "offset": 0,
        "slot": "1",
        "type": "t_mapping(t_address,t_uint256)"
      }
    ],
    "types": {
      "t_address": {
        "encoding": "inplace",
        "label": "address",
        "numberOfBytes": "20"
      },
      "t_mapping(t_address,t_uint256)": {
        "encoding": "mapping",
        "key": "t_address",
        "label": "mapping(address => uint256)",
        "numberOfBytes": "32",
        "value": "t_uint256"
      },
      "t_uint256": {
        "encoding": "inplace",
        "label": "uint256",
        "numberOfBytes": "32"
      }
    }
  }
}